:020000040800F2
:10000000800F002091010008790700084D060008C4
:1000100075070008430200080911000800000000ED
:10002000000000000000000000000000FF0B0008BE
:100030004503000800000000A7010008E90C0008C3
:10004000AB010008AB010008AB010008AB010008E0
:10005000AB010008AB010008AB010008AB010008D0
:10006000AB010008AB010008AB010008AB010008C0
:10007000AB010008AB010008AB010008AB010008B0
:10008000AB010008AB010008AB010008AB010008A0
:10009000AB010008AB010008AB010008AB01000890
:1000A000AB010008AB010008AB010008AB01000880
:1000B000AB010008AB010008AB010008AB01000870
:1000C000AB010008AB010008AB010008AB01000860
:1000D000AB010008510D0008AB010008AB0100089E
:1000E000AB010008AB010008AB01000800F002F80A
:1000F00000F03AF80AA090E8000C82448344AAF188
:100100000107DA4501D100F02FF8AFF2090EBAE885
:100110000F0013F0010F18BFFB1A43F0010318473B
:100120000413000024130000103A24BF78C878C1DB
:10013000FAD8520724BF30C830C144BF04680C60ED
:10014000704700000023002400250026103A28BF35
:1001500078C1FBD8520728BF30C148BF0B60704739
:100160001FB51FBD10B510BD00F035F81146FFF7E3
:10017000F7FF00F0E3FF00F053F803B4FFF7F2FFDE
:1001800003BC00F057F8000080F3088870470000B7
:100190000948804709480047FEE7FEE7FEE7FEE71B
:1001A000FEE7FEE7FEE7FEE7FEE7FEE70448054957
:1001B000054A064B70470000F10C0008ED000008EE
:1001C00080090020800F0020800B0020800B002081
:1001D000704770477047754600F028F8AE46050036
:1001E0006946534620F00700854618B020B5FFF752
:1001F000DDFFBDE820404FF000064FF000074FF054
:1002000000084FF0000B21F00701AC46ACE8C00934
:10021000ACE8C009ACE8C009ACE8C0098D4670473D
:100220000446AFF300802046FFF7A7FF0048704761
:100230002009002001491820ABBEFEE7260002007D
:10024000704700BFFEE70000F0B50246FF23FF2520
:100250000BE012F8010B80EA03040948005D80EA14
:1002600005030848055D481E81B20029F1D11E46EC
:100270004FF6FF7000EA062646EA0500F0BD0000D2
:10028000241200082413000870B505460C46A5F199
:10029000E00006284CD2DFE800F003111A1C3741B9
:1002A0002548C08918B12448C089012800D170BDF3
:1002B000002021490882C88188813AE01E48C0890F
:1002C00000B1F4E700201C49088200F025FB00F093
:1002D00023FB00F019FA012815D1002C13DD64214D
:1002E000164800F0D0F848B901201349C88102200F
:1002F0008881002008821248048004E001200E4911
:10030000C8810320888114E00B48C089012804D1EA
:10031000002009490882C88188810AE000F0C8F9F4
:10032000012804D10020044908820920888100E0C6
:1003300000BF00BF00BFBAE7400400200020000853
:10034000020000207047000030B5044604254FF439
:10035000302000F085F80546042D17D10C480069BF
:1003600040F002000A49086108464461006940F013
:10037000400008614FF4302000F072F80546044850
:10038000006941F6FD71084001490861284630BD09
:100390000020024004200B49C96801F0010109B1A5
:1003A00001200EE00749C96801F0040109B10220EB
:1003B00007E00449C96801F0100109B1032000E019
:1003C00004207047002002400348006940F080008C
:1003D000014908617047000000200240034800699D
:1003E00040F0800001490861704700000020024091
:1003F00070B504460D460426F00200F031F80646BA
:10040000042E11D10948006940F001000749086134
:100410002580F00200F024F806460448006941F601
:10042000FE71084001490861304670BD002002405D
:100430000248034948600348486070472301674504
:1004400000200240AB89EFCD0248034948600348D1
:10045000486070472301674500200240AB89EFCD1B
:1004600000B502460423FFF795FF034603E0FFF7BC
:1004700091FF0346521E012B01D1002AF7D102B988
:100480000523184600BD70B506460C46002500BF82
:1004900006E0304600F008F806F58066681C85B274
:1004A000A542F6DB002070BD38B50446042000905C
:1004B000C4F3090008B1002038BDFFF7C5FF20468E
:1004C000FFF742FF0090FFF789FF9DF80000042826
:1004D00001D10120F0E70020EEE72DE9F8430646C0
:1004E0000D46174600244FF6FF78A14604200090E1
:1004F000B146FFF7A9FF00BF10E0601C15F80080AF
:10050000285D00EB08201FFA80F841464846FFF7B7
:100510006FFF009009F10209A01C84B2BC42ECDB21
:10052000FFF75CFF9DF80000042802D10120BDE820
:10053000F8830020FBE72DE9F04102460025002664
:10054000002000230024002791F803C00CF00F05C1
:1005500091F803C00CF0100CBCF1000F03D091F81F
:1005600002C04CEA050591F800C0BCF1000F31D083
:10057000146800202BE04FF0010C0CFA00F3B1F8E6
:1005800000C00CEA03069E4220D183004FF00F0CFE
:100590000CFA03F7BC4305FA03FC4CEA040491F897
:1005A00003C0BCF1280F06D14FF0010C0CFA00FC7F
:1005B000C2F814C00AE091F803C0BCF1480F05D19D
:1005C0004FF0010C0CFA00FCC2F810C0401C0828C7
:1005D000D1D31460B1F800C0BCF1FF0F34DD546812
:1005E00000202EE000F1080C4FF0010808FA0CF38F
:1005F000B1F800C00CEA03069E4221D183004FF0FF
:100600000F0C0CFA03F7BC4305FA03FC4CEA040494
:1006100091F803C0BCF1280F05D100F1080C08FACD
:100620000CF8C2F8148091F803C0BCF1480F07D150
:1006300000F1080C4FF0010808FA0CF8C2F810801D
:10064000401C0828CED35460BDE8F08100BFFEE70F
:1006500038B5002400200090134800F046FAADF8A9
:1006600000001148801C00F040FAADF80200BDF80F
:100670000200BDF8001040EA014084B2FE200B49A0
:10068000488088804FF440704881002008810880AD
:10069000C8800882C881888145F6A520844201D19E
:1006A00000F034FD38BD0000081C000840040020A4
:1006B00038B50024002000901048C089012801D0DE
:1006C000002038BD0D488089052801D00020F8E7BA
:1006D0000A48008A0A490988884201D00020F0E7C8
:1006E000ADF8004045F6A520ADF8020002226946AB
:1006F000044800F0FDF90120E3E700004004002079
:1007000002000020081C00080D48C08908B901201B
:1007100070470B48C089012805D109488089022803
:1007200001D10120F4E70648C089012805D1044819
:100730008089032801D10120EAE70020E8E70000D2
:10074000400400200A48C089012801D000207047D9
:1007500007488089022807D005488089052803D0EA
:1007600003488089062801D10120F0E70020EEE748
:100770004004002000BFFEE7704708B54FF4A060BA
:1007800000F046F825208DF8000001208DF80100CA
:100790008DF802008DF80300684600F001F808BDEE
:1007A00070B5002100230F22C47804B3154C2468CF
:1007B00004F4E064C4F5E064210AC1F10403CA4012
:1007C000447804FA03F184781440214309010E4C63
:1007D0000678A155047804F01F050124AC40057883
:1007E0006D11AD0005F1E025C5F8004109E0047880
:1007F00004F01F050124AC40044D0678761145F83D
:10080000264070BD0CED00E000E400E080E100E077
:1008100002490143024A1160704700000000FA05D6
:100820000CED00E029B1064A92690243044B9A613B
:1008300004E0034A92698243014B9A6170470000C9
:100840000010024030B500210022002400232D4D6D
:100850006D6805F00C0121B1042905D0082923D1C8
:1008600005E0294D056022E0274D05601FE0254D7C
:100870006D6805F47012234D6D6805F4803402250F
:1008800005EB92421CB9214D554305600BE01D4D0F
:100890006D6805F400351DB11C4D5543056002E03F
:1008A000194D5543056002E0174D056000BF00BFBC
:1008B000144D6D6805F0F0010909154D6B5C056874
:1008C000DD4045600F4D6D6805F4E061090A104D8B
:1008D0006B5C4568DD4085600A4D6D6805F46051CC
:1008E000C90A0B4D6B5C4568DD40C560054D6D6800
:1008F00005F44041890B074D6B5CC568B5FBF3F50A
:10090000056130BD0010024000127A0000093D0070
:100910002C0000203C00002000BF0748006800F4C5
:10092000E06006490843001D03490860BFF3408F9B
:1009300000BF00BFFEE700000CED00E00000FA057C
:1009400070B50024002500266E222146641C1B4839
:10095000425403222146641C425412222146641C44
:10096000425400BF12E0164830F81500020A204633
:10097000611C8CB211490A54114810F81520204608
:10098000611C8CB20D490A54681C85B2092DEADB42
:1009900021460A48FFF758FC0646320A2046611CE9
:1009A0008CB206490A542046611C8CB203490E548D
:1009B0002146024800F058F870BD000002090020EE
:1009C0004004002010B586B0044601940020ADF824
:1009D0000800ADF80A00ADF80C00ADF810000C20CE
:1009E000ADF80E00012144F20500FFF71BFF0320C4
:1009F0008DF816004FF40070ADF8140018208DF833
:100A0000170005A91648FFF796FD4FF48060ADF872
:100A1000140004208DF8170005A91148FFF78BFD7D
:100A200001A9104800F0E0F9012240F225510D48DB
:100A300000F0B4F9252000F01F0201219140420985
:100A4000920002F1E022C2F8001100BF0121054826
:100A500000F08BF94021034800F093F906B010BD77
:100A6000000801400038014070B505460E460024DC
:100A70000EB9002070BD002401E0601CC4B2642CDB
:100A8000FBDB12E000BF80210E4800F07AF900285D
:100A9000F9D029780B4800F018FA00BF4021094826
:100AA00000F06FF90028F9D06D1C3000A6F10101AB
:100AB0008EB2E7D1002401E0601CC4B2642CFBDBE1
:100AC0000120D7E70038014030B503460C461546F3
:100AD000002207E0184600F008F824F812009B1CDA
:100AE000501C82B2AA42F5DB30BD0146088870472F
:100AF0002DE9F05F80468A461746B8F1006F02D3B1
:100B00003348804501D3BDE8F09FFFF791FCA8F181
:100B1000006B4FEA9B25CBF34809C9F50074A74247
:100B200000DC3C464DE04FF0006101EB85208A146B
:100B30002849FFF7C9FF00260BE009EB060025490D
:100B400031F810004FF6FF71884200D003E0701CAE
:100B500086B2A642F1DB00BFA6421BDA4FF000616D
:100B600001EB8520FFF7F0FB002608E03AF81600BD
:100B700006EB0901174A22F81100701C86B2A64242
:100B8000F4DB4FF0006101EB85208A14114900F07D
:100B900023F804E022465146404600F01DF8A742E3
:100BA00000D10FE06D1C4FF000090AEB440AA0448D
:100BB000381B87B2B7F5007F02DD4FF4007400E008
:100BC0003C46B0E700BFFFF7FFFB00BF9BE700001C
:100BD00000000208400000202DE9F04105460E46C5
:100BE0001746002407E036F814102846FFF700FCEB
:100BF000AD1C601C84B2BC42F5DBBDE8F0817047DF
:100C000010B500F001F810BD0CB500200190009067
:100C10003348006840F480303149086000BF3048F4
:100C2000006800F4003000900198401C019000988A
:100C300018B90198B0F5A06FF1D12948006800F407
:100C4000003010B10120009001E0002000900098D9
:100C5000012843D12348006840F010002149086072
:100C60000846006820F0030008600846006840F06D
:100C7000020008601A484068194948600846406800
:100C800048600846406840F4806048600846406814
:100C900020F47C1048600846406840F4E810486042
:100CA0000846006840F08070086000BF0C4800688B
:100CB00000F000700028F9D00948406820F00300D7
:100CC000074948600846406840F00200486000BF9D
:100CD0000348406800F00C000828F9D10CBD000062
:100CE000001002400020024010B500F061FA10BD73
:100CF00010B51348006840F001001149086008462B
:100D00004068104908400E494860084600680E498E
:100D100008400B4908600846006820F480200860FD
:100D20000846406820F4FE0048604FF41F008860C9
:100D3000FFF766FF4FF000600449086010BD000037
:100D4000001002400000FFF8FFFFF6FE08ED00E093
:100D500010B500F039FA10BD01F40072B2F5007F51
:100D600000D100BFCA430280704721B1828942F49A
:100D70000052828104E082894DF6FF731A4082811D
:100D8000704702460020B1F5007F00D100BF1388F4
:100D90000B400BB1012000E000207047F0B5034686
:100DA000002400260025002040F66A17B94200D131
:100DB00000BF1846C1F3421401F01F06012707FACD
:100DC00006F5012C01D10C3004E0022C01D11030C9
:100DD00000E014301AB107682F43076002E007688B
:100DE000AF430760F0BD00002DE9F04786B005462F
:100DF0000E460024A24600BFA1460027B08900B1DC
:100E000000BF2F462C8A4CF6FF700440F088044344
:100E10002C82AC894EF6F3100440B0883189084327
:100E2000718908430443AC81AC8A4FF6FF4004400B
:100E3000B0890443AC8201A8FFF704FD1F48874234
:100E400002D1DDF810A001E0DDF80CA0A88900F4C3
:100E5000004040B10AEBCA0000EB0A1031684900BB
:100E6000B0FBF1F807E00AEBCA0000EB0A103168AA
:100E70008900B0FBF1F86420B8FBF0F00401200910
:100E8000642101FB1089A88900F4004040B13220A0
:100E900000EBC900B0FBF1F000F00700044308E0EC
:100EA000322000EB09106421B0FBF1F000F00F00DC
:100EB00004432C8106B0BDE8F087000000380140F3
:100EC00001468888C0F308007047C1F30802828099
:100ED0007047000010B51E480078012837D11D4822
:100EE0000088002833D11A4908701A4908801A4826
:100EF000008802281ADD18480088801E81B2174831
:100F0000FFF7A2F91649088013480088801E13498C
:100F1000085C1449088010480088401E0F49085C8E
:100F20001049097800EB01200E4908800C48008820
:100F30000C490988884201D100F016F8FF200849C1
:100F40000880AA200749088000200349088010BDB6
:100F500006000020000000200400002052040020B1
:100F60000A0000200C0000202DE9F8430027B846B5
:100F70000025002600240020009081465B48077869
:100F800090F801806E2F04D0FF2F02D00020BDE822
:100F9000F883B8F1030F03D0B8F1100F7AD114E041
:100FA0005248C0785149897840EA01254F48407934
:100FB0004E49097940EA0126212D05D1092E03D198
:100FC000FFF7BEFC0120E2E78DE04848C0784749C2
:100FD000897840EA0125454840794449097940EA41
:100FE00001262A2D1FD1022E1DD100240FE008203A
:100FF00000EB44003D49085C072101EB44013B4AFA
:10100000515C40EA01202DF81400601CC4B2B442C7
:10101000EDDBBDF80210BDF80000FFF735F9FFF772
:101020008FFC0120B3E72C2D5BD1FFF78BFB012850
:1010300057D12E48007A2D49C97940EA01202C4920
:1010400008802A48407A00062849897A40EA014007
:101050002649C97A40EA01202449097B08432549E9
:1010600008602248807B2149497B40EA01202249CF
:1010700008802248008A401C1D490988884205D101
:101080001B4800881E490988884204DD06201B4948
:10109000888122E026E0174800681749098808443B
:1010A0001849884202D34FF0000908E0124802882C
:1010B0000E490F310F480068FFF70FFA8146B9F16A
:1010C000010F07D10D48008A401C0C4908820520F9
:1010D000888102E0082009498881FFF731FC01205E
:1010E00055E700E000BF00BF002050E75204002099
:1010F0000E000020100000201400002040040020FA
:10110000020000200000020800BFFEE710B50948F9
:10111000006809490840B0F1005F07D105484468FC
:1011200001460868FFF730F8A04700E010BD00BF97
:10113000FCE70000002000080000FE2FFFF71DFB69
:101140004FF41650FFF73EFCFFF782FA154800688F
:101150006422B0FBF2F1B1F1807F00D31DE021F0F9
:101160007F40401E4FF0E022506150170F220028B0
:1011700007DA13071D0E0C4B00F00F04241F1D553A
:1011800003E013071C0E094B1C5400BF00204FF056
:10119000E02290610720106100BF01E0FFF79AFE96
:1011A000FCE700001800002018ED00E000E400E07B
:1011B00004480088002804DD02480088401E0149D8
:1011C000088070470000002010B520211048FFF76C
:1011D000D8FDE0B10A200F49088020210C48FFF714
:1011E000BBFD0B48FFF76CFE0B490C4A1288885474
:1011F0000A480088401C0949088008460088B0F564
:10120000966F01DB0020088001200549087010BDA1
:10121000003801400000002052040020040000209B
:101220000600002000C1814001C0804101C0804112
:1012300000C1814001C0804100C1814000C18140A6
:1012400001C0804101C0804100C1814000C1814096
:1012500001C0804100C1814001C0804101C0804186
:1012600000C1814001C0804100C1814000C1814076
:1012700001C0804100C1814001C0804101C0804166
:1012800000C1814000C1814001C0804101C0804156
:1012900000C1814001C0804100C1814000C1814046
:1012A00001C0804101C0804100C1814000C1814036
:1012B00001C0804100C1814001C0804101C0804126
:1012C00000C1814000C1814001C0804101C0804116
:1012D00000C1814001C0804100C1814000C1814006
:1012E00001C0804100C1814001C0804101C08041F6
:1012F00000C1814001C0804100C1814000C18140E6
:1013000001C0804101C0804100C1814000C18140D5
:1013100001C0804100C1814001C0804101C08041C5
:1013200000C1814000C0C101C30302C2C60607C795
:1013300005C5C404CC0C0DCD0FCFCE0E0ACACB0B05
:10134000C90908C8D81819D91BDBDA1A1EDEDF1F35
:10135000DD1D1CDC14D4D515D71716D6D21213D325
:1013600011D1D010F03031F133F3F23236F6F737D5
:10137000F53534F43CFCFD3DFF3F3EFEFA3A3BFBC5
:1013800039F9F83828E8E929EB2B2AEAEE2E2FEF75
:101390002DEDEC2CE42425E527E7E62622E2E323E5
:1013A000E12120E0A06061A163A3A26266A6A76715
:1013B000A56564A46CACAD6DAF6F6EAEAA6A6BAB85
:1013C00069A9A86878B8B979BB7B7ABABE7E7FBFB5
:1013D0007DBDBC7CB47475B577B7B67672B2B373A5
:1013E000B17170B050909151935352929656579755
:1013F000559594549C5C5D9D5F9F9E5E5A9A9B5B45
:1014000099595898884849894B8B8A4A4E8E8F4FF4
:101410008D4D4C8C44848545874746868242438364
:10142000418180404414000800000020400000007A
:10143000280100088414000840000020400F00002C
:10144000440100080000000000000000BBBBFF00DA
:10145000AA000000000000000000000000A24A04F2
:101460000000000000000000010203040607080954
:10147000000000000102030401020304060708093A
:041480000204060854
:04000005080000ED02
:00000001FF
