:020000040800F2
:10000000600F0020910100086D07000875060008C8
:10001000690700084B020008F50F00080000000007
:100020000000000000000000000000002F0B00088E
:100030005103000800000000A7010008190C000887
:10004000AB010008AB010008AB010008AB010008E0
:10005000AB010008AB010008AB010008AB010008D0
:10006000AB010008AB010008AB010008AB010008C0
:10007000AB010008AB010008AB010008AB010008B0
:10008000AB010008AB010008AB010008AB010008A0
:10009000AB010008AB010008AB010008AB01000890
:1000A000AB010008AB010008AB010008AB01000880
:1000B000AB010008AB010008AB010008AB01000870
:1000C000AB010008AB010008AB010008AB01000860
:1000D000AB010008AB010008AB010008AB01000850
:1000E000AB010008AB010008AB01000800F002F80A
:1000F00000F03AF80AA090E8000C82448344AAF188
:100100000107DA4501D100F02FF8AFF2090EBAE885
:100110000F0013F0010F18BFFB1A43F0010318473B
:100120001C1100003C110000103A24BF78C878C1AF
:10013000FAD8520724BF30C830C144BF04680C60ED
:10014000704700000023002400250026103A28BF35
:1001500078C1FBD8520728BF30C148BF0B60704739
:100160001FB51FBD10B510BD00F035F81146FFF7E3
:10017000F7FF00F059FF00F053F803B4FFF7F2FF68
:1001800003BC00F05BF8000080F3088870470000B3
:100190000948804709480047FEE7FEE7FEE7FEE71B
:1001A000FEE7FEE7FEE7FEE7FEE7FEE70448054957
:1001B000054A064B704700001D0C0008ED000008C2
:1001C00060090020600F0020600B0020600B002001
:1001D000704770477047754600F02CF8AE46050032
:1001E0006946534620F00700854618B020B5FFF752
:1001F000DDFFBDE820404FF000064FF000074FF054
:1002000000084FF0000B21F00701AC46ACE8C00934
:10021000ACE8C009ACE8C009ACE8C0098D4670473D
:1002200010B50446AFF300802046BDE81040FFF74C
:10023000A4BF0000004870470009002001491820B1
:10024000ABBEFEE726000200704700BFFEE70000DD
:10025000F0B50246FF23FF250BE012F8010B80EA00
:1002600003040948005D80EA05030848055D481E4F
:1002700081B20029F1D11E464FF6FF7000EA062632
:1002800046EA0500F0BD00003C1000083C110008E3
:1002900070B505460C46A5F1E00006284ED2DFE811
:1002A00000F003111B1E39432648C08918B12548A8
:1002B000C089012800D170BD002022490882C88170
:1002C00088813CE01F48C08900B1F4E700201D4947
:1002D000088200F0C7FA32E000F0C4FA2FE000F024
:1002E0000DFA012815D1002C13DD6421164800F009
:1002F000D0F848B901201349C88102208881002024
:1003000008821248048004E001200E49C8810320BD
:10031000888114E00B48C089012804D100200949D4
:100320000882C88188810AE000F0C4F9012804D15C
:100330000020044908820920888100E000BF00BF36
:1003400000BFB8E7200000200020000800000020C7
:100350007047000030B5044604254FF4302000F00B
:1003600085F80546042D17D10C48006940F00200BD
:100370000A49086108464461006940F0400008618C
:100380004FF4302000F072F805460448006941F649
:10039000FD71084001490861284630BD0020024037
:1003A00004200B49C96801F0010109B101200EE0E8
:1003B0000749C96801F0040109B1022007E00449B6
:1003C000C96801F0100109B1032000E00420704762
:1003D000002002400348006940F0800001490861A4
:1003E00070470000002002400348006940F0800090
:1003F00001490861704700000020024070B50446C2
:100400000D460426F00200F031F80646042E11D104
:100410000948006940F00100074908612580F002A1
:1004200000F024F806460448006941F6FE710840D1
:1004300001490861304670BD00200240024803496E
:100440004860034848607047230167450020024028
:10045000AB89EFCD024803494860034848607047C4
:100460002301674500200240AB89EFCD00B502466D
:100470000423FFF795FF034603E0FFF791FF0346D0
:10048000521E012B01D1002AF7D102B905231846CB
:1004900000BD70B506460C46002500BF06E030469C
:1004A00000F008F806F58066681C85B2A542F6DB08
:1004B000002070BD38B5044604200090C4F3090044
:1004C00008B1002038BDFFF7C5FF2046FFF742FF07
:1004D0000090FFF789FF9DF80000042801D101205A
:1004E000F0E70020EEE72DE9F84F80460E4614466F
:1004F00000254FF6FF79AA46042000904046FFF7FA
:10050000D9FF38B1274604EBD7704010A4EB400068
:10051000012802D10020BDE8F88FC246FFF79AFFFC
:10052000002510E0681C16F80090705D00EB0920B3
:100530001FFA80F949465046FFF760FF00900AF124
:10054000020AA81C85B2A542ECDBFFF74DFF9DF81F
:100550000000042801D10120DDE70020DBE72DE9C0
:10056000F041024600250026002000230024002739
:1005700091F803C00CF00F0591F803C00CF0100CBB
:10058000BCF1000F03D091F802C04CEA050591F8C8
:1005900000C0BCF1000F31D0146800202BE04FF0F8
:1005A000010C0CFA00F3B1F800C00CEA03069E42FD
:1005B00020D183004FF00F0C0CFA03F7BC4305FA6F
:1005C00003FC4CEA040491F803C0BCF1280F06D1E7
:1005D0004FF0010C0CFA00FCC2F814C00AE091F8CC
:1005E00003C0BCF1480F05D14FF0010C0CFA00FC20
:1005F000C2F810C0401C0828D1D31460B1F800C064
:10060000BCF1FF0F34DD546800202EE000F1080C2F
:100610004FF0010808FA0CF3B1F800C00CEA030629
:100620009E4221D183004FF00F0C0CFA03F7BC431C
:1006300005FA03FC4CEA040491F803C0BCF1280F4E
:1006400005D100F1080C08FA0CF8C2F8148091F8F2
:1006500003C0BCF1480F07D100F1080C4FF00108AE
:1006600008FA0CF8C2F81080401C0828CED3546059
:10067000BDE8F08100BFFEE710B5FE200B494880C1
:1006800088804FF440704881002008810880C8802D
:100690000882C8818881064800F0BFF945F6A52187
:1006A000884201D100F0A8FC10BD0000200000200D
:1006B000FC1F000810B50D48C089012801D000209A
:1006C00010BD0A488089052801D00020F8E70748B6
:1006D000008A07490988884201D00020F0E70122FA
:1006E0000449054800F09CF90120E9E720000020BA
:1006F0000000002006000020FC1F00080D48C089F3
:1007000008B9012070470B48C089012805D1094864
:100710008089022801D10120F4E70648C089012818
:1007200005D104488089032801D10120EAE700208F
:10073000E8E70000200000200A48C089012801D015
:100740000020704707488089022807D00548808923
:10075000052803D003488089062801D10120F0E74D
:100760000020EEE72000002000BFFEE770470000F9
:1007700029B1064A92690243044B9A6104E0034A94
:1007800092698243014B9A61704700000010024059
:1007900030B500210022002400232D4D6D6805F0A6
:1007A0000C0121B1042905D0082923D105E0294DE8
:1007B000056022E0274D05601FE0254D6D6805F4BA
:1007C0007012234D6D6805F48034022505EB9242CA
:1007D0001CB9214D554305600BE01D4D6D6805F4B6
:1007E00000351DB11C4D5543056002E0194D5543C0
:1007F000056002E0174D056000BF00BF144D6D6835
:1008000005F0F0010909154D6B5C0568DD40456098
:100810000F4D6D6805F4E061090A104D6B5C456889
:10082000DD4085600A4D6D6805F46051C90A0B4DC5
:100830006B5C4568DD40C560054D6D6805F4404161
:10084000890B074D6B5CC568B5FBF3F5056130BDE1
:100850000010024000127A0000093D000A0000204A
:100860001A00002010B54FF00060006808490840E9
:10087000B0F1005F08D14FF000604468014608689D
:10088000FFF782FCA04700E010BD00BFFCE70000BE
:100890000000FE2F70B50024002500266E222146A0
:1008A000641C1B48425403222146641C42541222F9
:1008B0002146641C425400BF12E0164830F815006F
:1008C000020A2046611C8CB211490A54114810F8E2
:1008D00015202046611C8CB20D490A54681C85B253
:1008E000092DEADB21460A48FFF7B2FC0646320A28
:1008F0002046611C8CB206490A542046611C8CB209
:1009000003490E542146024800F046F870BD00002D
:10091000E20400202000002010B586B004460194B7
:100920000020ADF80800ADF80A00ADF80C00ADF8F5
:1009300010000C20ADF80E00012144F20500FFF775
:1009400017FF03208DF816004FF40070ADF8140067
:1009500018208DF8170005A90D48FFF700FE4FF489
:100960008060ADF8140004208DF8170005A9084830
:10097000FFF7F5FD01A9074800F0A2F9012105489C
:1009800000F085F94021034800F08DF906B010BD54
:10099000000801400038014070B505460E460024AD
:1009A0000EB9002070BD002401E0601CC4B2642CAC
:1009B000FBDB12E000BF80210E4800F074F9002834
:1009C000F9D029780B4800F0ECF900BF4021094824
:1009D00000F069F90028F9D06D1C301EA6F1010164
:1009E0008EB2E7D1002401E0601CC4B2642CFBDBB2
:1009F0000120D7E70038014030B503460C461546C4
:100A0000002207E0184600F008F824F812009B1CAA
:100A1000501C82B2AA42F5DB30BD014608887047FF
:100A20002DE9F05F80468A461746B8F1006F02D381
:100A30003348804501D3BDE8F09FFFF7FFFCA8F1E4
:100A4000006B4FEA9B25CBF34809C9F50074A74218
:100A500000DC3C464DE04FF0006101EB85208A143C
:100A60002849FFF7C9FF00260BE009EB06002549DE
:100A700031F810004FF6FF71884200D003E0701C7F
:100A800086B2A642F1DB00BFA6421BDA4FF000613E
:100A900001EB8520FFF75EFC002608E03AF816001F
:100AA00006EB0901174A22F81100701C86B2A64213
:100AB000F4DB4FF0006101EB85208A14114900F04E
:100AC00023F804E022465146404600F01DF8A742B4
:100AD00000D10FE06D1C4FF000090AEB440AA0445E
:100AE000381B87B2B7F5007F02DD4FF4007400E0D9
:100AF0003C46B0E700BFFFF76DFC00BF9BE700007E
:100B000000000208000500202DE9F04105460E46D0
:100B10001746002407E036F814102846FFF76EFC4D
:100B2000AD1C601C84B2BC42F5DBBDE8F0817047AF
:100B300010B500F001F810BD0CB500200190009038
:100B40003348006840F480303149086000BF3048C5
:100B5000006800F4003000900198401C019000985B
:100B600018B90198B0F5A06FF1D12948006800F4D8
:100B7000003010B10120009001E0002000900098AA
:100B8000012843D12348006840F010002149086043
:100B90000846006820F0030008600846006840F03E
:100BA000020008601A4840681949486008464068D1
:100BB00048600846406840F48060486008464068E5
:100BC00020F47C1048600846406840F4E810486013
:100BD0000846006840F08070086000BF0C4800685C
:100BE00000F000700028F9D00948406820F00300A8
:100BF000074948600846406840F00200486000BF6E
:100C00000348406800F00C000828F9D10CBD000032
:100C100000100240002002407047000010B5134849
:100C2000006840F00100114908600846406810491A
:100C300008400E494860084600680E4908400B49C4
:100C400008600846006820F4802008600846406874
:100C500020F4FE0048604FF41F008860FFF768FF33
:100C60004FF000600449086010BD00000010024011
:100C70000000FFF8FFFFF6FE08ED00E001F400724F
:100C8000B2F5007F00D100BFCA430280704721B196
:100C9000828942F40052828104E082894DF6FF731A
:100CA0001A408281704702460020B1F5007F00D1D2
:100CB00000BF13880B400BB1012000E000207047FB
:100CC0002DE9F04786B005460E460024A24600BF37
:100CD000A1460027B08900B100BF2F462C8A4CF6F0
:100CE000FF700440F08804432C82AC894EF6F31068
:100CF0000440B08831890843718908430443AC81BA
:100D0000AC8A4FF6FF400440B0890443AC8201A88E
:100D1000FFF73EFD1F48874202D1DDF810A001E039
:100D2000DDF80CA0A88900F4004040B10AEBCA002D
:100D300000EB0A1031684900B0FBF1F807E00AEB5C
:100D4000CA0000EB0A1031688900B0FBF1F864209A
:100D5000B8FBF0F004012009642101FB1089A88987
:100D600000F4004040B1322000EBC900B0FBF1F0CC
:100D700000F00700044308E0322000EB0910642172
:100D8000B0FBF1F000F00F0004432C8106B0BDE889
:100D9000F08700000038014001468888C0F3080051
:100DA0007047C1F3080282807047000070B50025CB
:100DB000002420212A48FFF776FFE8B120212848A7
:100DC000FFF75CFF2648FFF7E7FF2649264A12880F
:100DD000885425480088401C23490880084600881C
:100DE000B0F5966F01DB0020088001201F490870D4
:100DF00000201F49088004E01D480088401C1C4951
:100E000008801A480078012828D119480088B0F5D0
:100E1000FA6F23DB00201549087015490880124835
:100E20000088022813DD10480088801E81B20D481A
:100E3000FFF70EFA05460C480088801E09490C5C35
:100E400009480088401E085C00EB042084B2A542DB
:100E500001D100F00FF800200349088070BD0000A8
:100E60000038014032000020020000200400002071
:100E7000080000202DE9FC5F0027BB460025002666
:100E8000002400200190804681468246009055480B
:100E9000077890F801B06E2F04D0FF2F02D0002009
:100EA000BDE8FC9FBBF1030F03D0BBF1100F72D163
:100EB00014E04C48C0784B49897840EA01254948FC
:100EC00040794849097940EA0126212D05D1092EAA
:100ED00003D1FFF7DFFC0120E2E780E04148C07862
:100EE0004049897840EA01253E4840793D490979E1
:100EF00040EA01262A2D20D1022E1ED1002410E026
:100F0000082000EB44003749085C072101EB44014D
:100F1000344A515C40EA012001A921F81400601C08
:100F2000C4B2B442ECDBBDF80610BDF80400FFF714
:100F3000AFF9FFF7AFFC0120B2E72C2D4DD1FFF741
:100F4000FBFB012849D12748007A2649C97940EAA4
:100F500001282448407A00062249897A40EA014063
:100F60002049C97A40EA01201E49097B40EA01096B
:100F70001C48807B1B49497B40EA012A1A48008AA9
:100F8000401C404503D119480088804504DD0620F7
:100F9000154988811DE021E009EB0A0014498842C7
:100FA00002D30020009006E052460E490F31484619
:100FB000FFF799FA00900098012807D10A48008AA3
:100FC000401C094908820520888102E00820064962
:100FD0008881FFF75FFC012062E700E000BF00BFEF
:100FE00000205DE7320000202000002000000020EB
:100FF0000000020800BFFEE710B509480068094973
:101000000840B0F1005F07D1054844680146086810
:10101000FFF7BAF8A04700E010BD00BFFCE70000F2
:10102000002000080000FE2F4FF41650FFF774FC5C
:10103000FFF722FB01E0FFF7B9FEFCE700C18140AA
:1010400001C0804101C0804100C1814001C0804198
:1010500000C1814000C1814001C0804101C0804188
:1010600000C1814000C1814001C0804100C1814078
:1010700001C0804101C0804100C1814001C0804168
:1010800000C1814000C1814001C0804100C1814058
:1010900001C0804101C0804100C1814000C1814048
:1010A00001C0804101C0804100C1814001C0804138
:1010B00000C1814000C1814001C0804101C0804128
:1010C00000C1814000C1814001C0804100C1814018
:1010D00001C0804101C0804100C1814000C1814008
:1010E00001C0804101C0804100C1814001C08041F8
:1010F00000C1814000C1814001C0804100C18140E8
:1011000001C0804101C0804100C1814001C08041D7
:1011100000C1814000C1814001C0804101C08041C7
:1011200000C1814000C1814001C0804100C18140B7
:1011300001C0804101C0804100C1814000C0C101A7
:10114000C30302C2C60607C705C5C404CC0C0DCD37
:101150000FCFCE0E0ACACB0BC90908C8D81819D9A7
:101160001BDBDA1A1EDEDF1FDD1D1CDC14D4D515D7
:10117000D71716D6D21213D311D1D010F03031F1C7
:1011800033F3F23236F6F737F53534F43CFCFD3DF7
:10119000FF3F3EFEFA3A3BFB39F9F83828E8E929E7
:1011A000EB2B2AEAEE2E2FEF2DEDEC2CE42425E597
:1011B00027E7E62622E2E323E12120E0A06061A107
:1011C00063A3A26266A6A767A56564A46CACAD6DB7
:1011D000AF6F6EAEAA6A6BAB69A9A86878B8B97927
:1011E000BB7B7ABABE7E7FBF7DBDBC7CB47475B557
:1011F00077B7B67672B2B373B17170B05090915147
:101200009353529296565797559594549C5C5D9D76
:101210005F9F9E5E5A9A9B5B995958988848498966
:101220004B8B8A4A4E8E8F4F8D4D4C8C4484854516
:101230008747468682424383418180405C12000892
:101240000000002020000000280100087C12000897
:1012500020000020400F00004401000800000000B2
:101260000000A55A00000000000001020304010272
:0C12700003040607080902040608000039
:04000005080000ED02
:00000001FF
